{
  "contractName": "Tournament",
  "abi": [
    {
      "inputs": [
        {
          "internalType": "uint256",
          "name": "",
          "type": "uint256"
        }
      ],
      "name": "matches",
      "outputs": [
        {
          "internalType": "string",
          "name": "player_id_1",
          "type": "string"
        },
        {
          "internalType": "string",
          "name": "player_id_2",
          "type": "string"
        },
        {
          "internalType": "string",
          "name": "player_id_3",
          "type": "string"
        },
        {
          "internalType": "string",
          "name": "player_id_4",
          "type": "string"
        },
        {
          "internalType": "string",
          "name": "score_match_1_2",
          "type": "string"
        },
        {
          "internalType": "string",
          "name": "score_match_3_4",
          "type": "string"
        },
        {
          "internalType": "string",
          "name": "score_match_final",
          "type": "string"
        }
      ],
      "stateMutability": "view",
      "type": "function",
      "constant": true
    },
    {
      "inputs": [
        {
          "internalType": "string",
          "name": "player_id_1",
          "type": "string"
        },
        {
          "internalType": "string",
          "name": "player_id_2",
          "type": "string"
        },
        {
          "internalType": "string",
          "name": "player_id_3",
          "type": "string"
        },
        {
          "internalType": "string",
          "name": "player_id_4",
          "type": "string"
        },
        {
          "internalType": "string",
          "name": "score_match_1_2",
          "type": "string"
        },
        {
          "internalType": "string",
          "name": "score_match_3_4",
          "type": "string"
        },
        {
          "internalType": "string",
          "name": "score_match_final",
          "type": "string"
        }
      ],
      "name": "saveMatch",
      "outputs": [],
      "stateMutability": "nonpayable",
      "type": "function"
    },
    {
      "inputs": [],
      "name": "getMatches",
      "outputs": [
        {
          "components": [
            {
              "internalType": "string",
              "name": "player_id_1",
              "type": "string"
            },
            {
              "internalType": "string",
              "name": "player_id_2",
              "type": "string"
            },
            {
              "internalType": "string",
              "name": "player_id_3",
              "type": "string"
            },
            {
              "internalType": "string",
              "name": "player_id_4",
              "type": "string"
            },
            {
              "internalType": "string",
              "name": "score_match_1_2",
              "type": "string"
            },
            {
              "internalType": "string",
              "name": "score_match_3_4",
              "type": "string"
            },
            {
              "internalType": "string",
              "name": "score_match_final",
              "type": "string"
            }
          ],
          "internalType": "struct Tournament.Match[]",
          "name": "",
          "type": "tuple[]"
        }
      ],
      "stateMutability": "view",
      "type": "function",
      "constant": true
    }
  ],
  "bytecode": "0x608060405234801561001057600080fd5b5061136a806100206000396000f3fe608060405234801561001057600080fd5b50600436106100415760003560e01c80632c70120e146100465780634768d4ef14610064578063d339f8281461009a575b600080fd5b61004e6100b6565b60405161005b9190610c38565b60405180910390f35b61007e60048036038101906100799190610ca4565b610513565b6040516100919796959493929190610d1b565b60405180910390f35b6100b460048036038101906100af9190610ef0565b61091d565b005b60606000805480602002602001604051908101604052809291908181526020016000905b8282101561050a57838290600052602060002090600702016040518060e001604052908160008201805461010d90611085565b80601f016020809104026020016040519081016040528092919081815260200182805461013990611085565b80156101865780601f1061015b57610100808354040283529160200191610186565b820191906000526020600020905b81548152906001019060200180831161016957829003601f168201915b5050505050815260200160018201805461019f90611085565b80601f01602080910402602001604051908101604052809291908181526020018280546101cb90611085565b80156102185780601f106101ed57610100808354040283529160200191610218565b820191906000526020600020905b8154815290600101906020018083116101fb57829003601f168201915b5050505050815260200160028201805461023190611085565b80601f016020809104026020016040519081016040528092919081815260200182805461025d90611085565b80156102aa5780601f1061027f576101008083540402835291602001916102aa565b820191906000526020600020905b81548152906001019060200180831161028d57829003601f168201915b505050505081526020016003820180546102c390611085565b80601f01602080910402602001604051908101604052809291908181526020018280546102ef90611085565b801561033c5780601f106103115761010080835404028352916020019161033c565b820191906000526020600020905b81548152906001019060200180831161031f57829003601f168201915b5050505050815260200160048201805461035590611085565b80601f016020809104026020016040519081016040528092919081815260200182805461038190611085565b80156103ce5780601f106103a3576101008083540402835291602001916103ce565b820191906000526020600020905b8154815290600101906020018083116103b157829003601f168201915b505050505081526020016005820180546103e790611085565b80601f016020809104026020016040519081016040528092919081815260200182805461041390611085565b80156104605780601f1061043557610100808354040283529160200191610460565b820191906000526020600020905b81548152906001019060200180831161044357829003601f168201915b5050505050815260200160068201805461047990611085565b80601f01602080910402602001604051908101604052809291908181526020018280546104a590611085565b80156104f25780601f106104c7576101008083540402835291602001916104f2565b820191906000526020600020905b8154815290600101906020018083116104d557829003601f168201915b505050505081525050815260200190600101906100da565b50505050905090565b6000818154811061052357600080fd5b906000526020600020906007020160009150905080600001805461054690611085565b80601f016020809104026020016040519081016040528092919081815260200182805461057290611085565b80156105bf5780601f10610594576101008083540402835291602001916105bf565b820191906000526020600020905b8154815290600101906020018083116105a257829003601f168201915b5050505050908060010180546105d490611085565b80601f016020809104026020016040519081016040528092919081815260200182805461060090611085565b801561064d5780601f106106225761010080835404028352916020019161064d565b820191906000526020600020905b81548152906001019060200180831161063057829003601f168201915b50505050509080600201805461066290611085565b80601f016020809104026020016040519081016040528092919081815260200182805461068e90611085565b80156106db5780601f106106b0576101008083540402835291602001916106db565b820191906000526020600020905b8154815290600101906020018083116106be57829003601f168201915b5050505050908060030180546106f090611085565b80601f016020809104026020016040519081016040528092919081815260200182805461071c90611085565b80156107695780601f1061073e57610100808354040283529160200191610769565b820191906000526020600020905b81548152906001019060200180831161074c57829003601f168201915b50505050509080600401805461077e90611085565b80601f01602080910402602001604051908101604052809291908181526020018280546107aa90611085565b80156107f75780601f106107cc576101008083540402835291602001916107f7565b820191906000526020600020905b8154815290600101906020018083116107da57829003601f168201915b50505050509080600501805461080c90611085565b80601f016020809104026020016040519081016040528092919081815260200182805461083890611085565b80156108855780601f1061085a57610100808354040283529160200191610885565b820191906000526020600020905b81548152906001019060200180831161086857829003601f168201915b50505050509080600601805461089a90611085565b80601f01602080910402602001604051908101604052809291908181526020018280546108c690611085565b80156109135780601f106108e857610100808354040283529160200191610913565b820191906000526020600020905b8154815290600101906020018083116108f657829003601f168201915b5050505050905087565b60006040518060e0016040528089815260200188815260200187815260200186815260200185815260200184815260200183815250908060018154018082558091505060019003906000526020600020906007020160009091909190915060008201518160000190816109909190611262565b5060208201518160010190816109a69190611262565b5060408201518160020190816109bc9190611262565b5060608201518160030190816109d29190611262565b5060808201518160040190816109e89190611262565b5060a08201518160050190816109fe9190611262565b5060c0820151816006019081610a149190611262565b50505050505050505050565b600081519050919050565b600082825260208201905092915050565b6000819050602082019050919050565b600081519050919050565b600082825260208201905092915050565b60005b83811015610a86578082015181840152602081019050610a6b565b60008484015250505050565b6000601f19601f8301169050919050565b6000610aae82610a4c565b610ab88185610a57565b9350610ac8818560208601610a68565b610ad181610a92565b840191505092915050565b600060e0830160008301518482036000860152610af98282610aa3565b91505060208301518482036020860152610b138282610aa3565b91505060408301518482036040860152610b2d8282610aa3565b91505060608301518482036060860152610b478282610aa3565b91505060808301518482036080860152610b618282610aa3565b91505060a083015184820360a0860152610b7b8282610aa3565b91505060c083015184820360c0860152610b958282610aa3565b9150508091505092915050565b6000610bae8383610adc565b905092915050565b6000602082019050919050565b6000610bce82610a20565b610bd88185610a2b565b935083602082028501610bea85610a3c565b8060005b85811015610c265784840389528151610c078582610ba2565b9450610c1283610bb6565b925060208a01995050600181019050610bee565b50829750879550505050505092915050565b60006020820190508181036000830152610c528184610bc3565b905092915050565b6000604051905090565b600080fd5b600080fd5b6000819050919050565b610c8181610c6e565b8114610c8c57600080fd5b50565b600081359050610c9e81610c78565b92915050565b600060208284031215610cba57610cb9610c64565b5b6000610cc884828501610c8f565b91505092915050565b600082825260208201905092915050565b6000610ced82610a4c565b610cf78185610cd1565b9350610d07818560208601610a68565b610d1081610a92565b840191505092915050565b600060e0820190508181036000830152610d35818a610ce2565b90508181036020830152610d498189610ce2565b90508181036040830152610d5d8188610ce2565b90508181036060830152610d718187610ce2565b90508181036080830152610d858186610ce2565b905081810360a0830152610d998185610ce2565b905081810360c0830152610dad8184610ce2565b905098975050505050505050565b600080fd5b600080fd5b7f4e487b7100000000000000000000000000000000000000000000000000000000600052604160045260246000fd5b610dfd82610a92565b810181811067ffffffffffffffff82111715610e1c57610e1b610dc5565b5b80604052505050565b6000610e2f610c5a565b9050610e3b8282610df4565b919050565b600067ffffffffffffffff821115610e5b57610e5a610dc5565b5b610e6482610a92565b9050602081019050919050565b82818337600083830152505050565b6000610e93610e8e84610e40565b610e25565b905082815260208101848484011115610eaf57610eae610dc0565b5b610eba848285610e71565b509392505050565b600082601f830112610ed757610ed6610dbb565b5b8135610ee7848260208601610e80565b91505092915050565b600080600080600080600060e0888a031215610f0f57610f0e610c64565b5b600088013567ffffffffffffffff811115610f2d57610f2c610c69565b5b610f398a828b01610ec2565b975050602088013567ffffffffffffffff811115610f5a57610f59610c69565b5b610f668a828b01610ec2565b965050604088013567ffffffffffffffff811115610f8757610f86610c69565b5b610f938a828b01610ec2565b955050606088013567ffffffffffffffff811115610fb457610fb3610c69565b5b610fc08a828b01610ec2565b945050608088013567ffffffffffffffff811115610fe157610fe0610c69565b5b610fed8a828b01610ec2565b93505060a088013567ffffffffffffffff81111561100e5761100d610c69565b5b61101a8a828b01610ec2565b92505060c088013567ffffffffffffffff81111561103b5761103a610c69565b5b6110478a828b01610ec2565b91505092959891949750929550565b7f4e487b7100000000000000000000000000000000000000000000000000000000600052602260045260246000fd5b6000600282049050600182168061109d57607f821691505b6020821081036110b0576110af611056565b5b50919050565b60008190508160005260206000209050919050565b60006020601f8301049050919050565b600082821b905092915050565b6000600883026111187fffffffffffffffffffffffffffffffffffffffffffffffffffffffffffffffff826110db565b61112286836110db565b95508019841693508086168417925050509392505050565b6000819050919050565b600061115f61115a61115584610c6e565b61113a565b610c6e565b9050919050565b6000819050919050565b61117983611144565b61118d61118582611166565b8484546110e8565b825550505050565b600090565b6111a2611195565b6111ad818484611170565b505050565b5b818110156111d1576111c660008261119a565b6001810190506111b3565b5050565b601f821115611216576111e7816110b6565b6111f0846110cb565b810160208510156111ff578190505b61121361120b856110cb565b8301826111b2565b50505b505050565b600082821c905092915050565b60006112396000198460080261121b565b1980831691505092915050565b60006112528383611228565b9150826002028217905092915050565b61126b82610a4c565b67ffffffffffffffff81111561128457611283610dc5565b5b61128e8254611085565b6112998282856111d5565b600060209050601f8311600181146112cc57600084156112ba578287015190505b6112c48582611246565b86555061132c565b601f1984166112da866110b6565b60005b82811015611302578489015182556001820191506020850194506020810190506112dd565b8683101561131f578489015161131b601f891682611228565b8355505b6001600288020188555050505b50505050505056fea2646970667358221220911ca87049335f8403d1755b4542ce79203ab0ef31d1bf5e70ad78b7ec1af7f064736f6c63430008130033",
  "immutableReferences": {},
  "source": "// SPDX-License-Identifier: MIT\npragma solidity 0.8.19;\n\ncontract Tournament {\n    struct Match {\n        string player_id_1;\n        string player_id_2;\n        string player_id_3;\n        string player_id_4;\n        string score_match_1_2;\n        string score_match_3_4;\n        string score_match_final;\n    }\n\n    Match[] public matches;\n\n    function saveMatch(\n        string memory player_id_1,\n        string memory player_id_2,\n        string memory player_id_3,\n        string memory player_id_4,\n        string memory score_match_1_2,\n        string memory score_match_3_4,\n        string memory score_match_final\n    ) public {\n        matches.push(Match(\n            player_id_1,\n            player_id_2,\n            player_id_3,\n            player_id_4,\n            score_match_1_2,\n            score_match_3_4,\n            score_match_final\n        ));\n    }\n\n    function getMatches() public view returns (Match[] memory) {\n        return matches;\n    }\n}\n",
  "sourcePath": "/app/contracts/Tournament.sol",
  "compiler": {
    "name": "solc",
    "version": "0.8.19+commit.7dd6d404.Emscripten.clang"
  },
  "schemaVersion": "3.4.16",
  "updatedAt": "2025-03-25T19:47:44.384Z",
  "networkType": "ethereum",
  "devdoc": {
    "kind": "dev",
    "methods": {},
    "version": 1
  },
  "userdoc": {
    "kind": "user",
    "methods": {},
    "version": 1
  }
}